{
  "_format": "hh-sol-artifact-1",
  "contractName": "RandomIpfsNft",
  "sourceName": "contracts/RandomIpfsNft.sol",
  "abi": [
    {
      "inputs": [
        {
          "internalType": "address",
          "name": "VRFCoordinatorV2",
          "type": "address"
        },
        {
          "internalType": "uint64",
          "name": "subscriptionId",
          "type": "uint64"
        },
        {
          "internalType": "bytes32",
          "name": "gasLane",
          "type": "bytes32"
        },
        {
          "internalType": "uint32",
          "name": "callbackGasLimit",
          "type": "uint32"
        },
        {
          "internalType": "string[3]",
          "name": "dogTokenUris",
          "type": "string[3]"
        },
        {
          "internalType": "uint256",
          "name": "mintFee",
          "type": "uint256"
        }
      ],
      "stateMutability": "nonpayable",
      "type": "constructor"
    },
    {
      "inputs": [
        {
          "internalType": "address",
          "name": "have",
          "type": "address"
        },
        {
          "internalType": "address",
          "name": "want",
          "type": "address"
        }
      ],
      "name": "OnlyCoordinatorCanFulfill",
      "type": "error"
    },
    {
      "inputs": [],
      "name": "RandomIpfsNft__NeedMoreEthSent",
      "type": "error"
    },
    {
      "inputs": [],
      "name": "RandomIpfsNft__RangeOutOfBound",
      "type": "error"
    },
    {
      "inputs": [],
      "name": "RandomIpfsNft__TransferFailed",
      "type": "error"
    },
    {
      "anonymous": false,
      "inputs": [
        {
          "indexed": true,
          "internalType": "address",
          "name": "owner",
          "type": "address"
        },
        {
          "indexed": true,
          "internalType": "address",
          "name": "approved",
          "type": "address"
        },
        {
          "indexed": true,
          "internalType": "uint256",
          "name": "tokenId",
          "type": "uint256"
        }
      ],
      "name": "Approval",
      "type": "event"
    },
    {
      "anonymous": false,
      "inputs": [
        {
          "indexed": true,
          "internalType": "address",
          "name": "owner",
          "type": "address"
        },
        {
          "indexed": true,
          "internalType": "address",
          "name": "operator",
          "type": "address"
        },
        {
          "indexed": false,
          "internalType": "bool",
          "name": "approved",
          "type": "bool"
        }
      ],
      "name": "ApprovalForAll",
      "type": "event"
    },
    {
      "anonymous": false,
      "inputs": [
        {
          "indexed": false,
          "internalType": "enum RandomIpfsNft.Breed",
          "name": "dogBreed",
          "type": "uint8"
        },
        {
          "indexed": false,
          "internalType": "address",
          "name": "minter",
          "type": "address"
        }
      ],
      "name": "NftMinted",
      "type": "event"
    },
    {
      "anonymous": false,
      "inputs": [
        {
          "indexed": true,
          "internalType": "uint256",
          "name": "requestId",
          "type": "uint256"
        },
        {
          "indexed": false,
          "internalType": "address",
          "name": "requester",
          "type": "address"
        }
      ],
      "name": "NftRequested",
      "type": "event"
    },
    {
      "anonymous": false,
      "inputs": [
        {
          "indexed": true,
          "internalType": "address",
          "name": "previousOwner",
          "type": "address"
        },
        {
          "indexed": true,
          "internalType": "address",
          "name": "newOwner",
          "type": "address"
        }
      ],
      "name": "OwnershipTransferred",
      "type": "event"
    },
    {
      "anonymous": false,
      "inputs": [
        {
          "indexed": true,
          "internalType": "address",
          "name": "from",
          "type": "address"
        },
        {
          "indexed": true,
          "internalType": "address",
          "name": "to",
          "type": "address"
        },
        {
          "indexed": true,
          "internalType": "uint256",
          "name": "tokenId",
          "type": "uint256"
        }
      ],
      "name": "Transfer",
      "type": "event"
    },
    {
      "inputs": [
        {
          "internalType": "address",
          "name": "to",
          "type": "address"
        },
        {
          "internalType": "uint256",
          "name": "tokenId",
          "type": "uint256"
        }
      ],
      "name": "approve",
      "outputs": [],
      "stateMutability": "nonpayable",
      "type": "function"
    },
    {
      "inputs": [
        {
          "internalType": "address",
          "name": "owner",
          "type": "address"
        }
      ],
      "name": "balanceOf",
      "outputs": [
        {
          "internalType": "uint256",
          "name": "",
          "type": "uint256"
        }
      ],
      "stateMutability": "view",
      "type": "function"
    },
    {
      "inputs": [
        {
          "internalType": "uint256",
          "name": "tokenId",
          "type": "uint256"
        }
      ],
      "name": "getApproved",
      "outputs": [
        {
          "internalType": "address",
          "name": "",
          "type": "address"
        }
      ],
      "stateMutability": "view",
      "type": "function"
    },
    {
      "inputs": [
        {
          "internalType": "uint256",
          "name": "moddedRng",
          "type": "uint256"
        }
      ],
      "name": "getBreedFromModdedRng",
      "outputs": [
        {
          "internalType": "enum RandomIpfsNft.Breed",
          "name": "",
          "type": "uint8"
        }
      ],
      "stateMutability": "pure",
      "type": "function"
    },
    {
      "inputs": [],
      "name": "getChanceArray",
      "outputs": [
        {
          "internalType": "uint256[3]",
          "name": "",
          "type": "uint256[3]"
        }
      ],
      "stateMutability": "pure",
      "type": "function"
    },
    {
      "inputs": [],
      "name": "getMintFee",
      "outputs": [
        {
          "internalType": "uint256",
          "name": "",
          "type": "uint256"
        }
      ],
      "stateMutability": "view",
      "type": "function"
    },
    {
      "inputs": [],
      "name": "getTokenCounter",
      "outputs": [
        {
          "internalType": "uint256",
          "name": "",
          "type": "uint256"
        }
      ],
      "stateMutability": "view",
      "type": "function"
    },
    {
      "inputs": [
        {
          "internalType": "uint256",
          "name": "index",
          "type": "uint256"
        }
      ],
      "name": "gotDogTokenUris",
      "outputs": [
        {
          "internalType": "string",
          "name": "",
          "type": "string"
        }
      ],
      "stateMutability": "view",
      "type": "function"
    },
    {
      "inputs": [
        {
          "internalType": "address",
          "name": "owner",
          "type": "address"
        },
        {
          "internalType": "address",
          "name": "operator",
          "type": "address"
        }
      ],
      "name": "isApprovedForAll",
      "outputs": [
        {
          "internalType": "bool",
          "name": "",
          "type": "bool"
        }
      ],
      "stateMutability": "view",
      "type": "function"
    },
    {
      "inputs": [],
      "name": "name",
      "outputs": [
        {
          "internalType": "string",
          "name": "",
          "type": "string"
        }
      ],
      "stateMutability": "view",
      "type": "function"
    },
    {
      "inputs": [],
      "name": "owner",
      "outputs": [
        {
          "internalType": "address",
          "name": "",
          "type": "address"
        }
      ],
      "stateMutability": "view",
      "type": "function"
    },
    {
      "inputs": [
        {
          "internalType": "uint256",
          "name": "tokenId",
          "type": "uint256"
        }
      ],
      "name": "ownerOf",
      "outputs": [
        {
          "internalType": "address",
          "name": "",
          "type": "address"
        }
      ],
      "stateMutability": "view",
      "type": "function"
    },
    {
      "inputs": [
        {
          "internalType": "uint256",
          "name": "requestId",
          "type": "uint256"
        },
        {
          "internalType": "uint256[]",
          "name": "randomWords",
          "type": "uint256[]"
        }
      ],
      "name": "rawFulfillRandomWords",
      "outputs": [],
      "stateMutability": "nonpayable",
      "type": "function"
    },
    {
      "inputs": [],
      "name": "renounceOwnership",
      "outputs": [],
      "stateMutability": "nonpayable",
      "type": "function"
    },
    {
      "inputs": [],
      "name": "requestNft",
      "outputs": [
        {
          "internalType": "uint256",
          "name": "requestId",
          "type": "uint256"
        }
      ],
      "stateMutability": "payable",
      "type": "function"
    },
    {
      "inputs": [
        {
          "internalType": "uint256",
          "name": "",
          "type": "uint256"
        }
      ],
      "name": "s_requestIdToSender",
      "outputs": [
        {
          "internalType": "address",
          "name": "",
          "type": "address"
        }
      ],
      "stateMutability": "view",
      "type": "function"
    },
    {
      "inputs": [],
      "name": "s_tokenCounter",
      "outputs": [
        {
          "internalType": "uint256",
          "name": "",
          "type": "uint256"
        }
      ],
      "stateMutability": "view",
      "type": "function"
    },
    {
      "inputs": [
        {
          "internalType": "address",
          "name": "from",
          "type": "address"
        },
        {
          "internalType": "address",
          "name": "to",
          "type": "address"
        },
        {
          "internalType": "uint256",
          "name": "tokenId",
          "type": "uint256"
        }
      ],
      "name": "safeTransferFrom",
      "outputs": [],
      "stateMutability": "nonpayable",
      "type": "function"
    },
    {
      "inputs": [
        {
          "internalType": "address",
          "name": "from",
          "type": "address"
        },
        {
          "internalType": "address",
          "name": "to",
          "type": "address"
        },
        {
          "internalType": "uint256",
          "name": "tokenId",
          "type": "uint256"
        },
        {
          "internalType": "bytes",
          "name": "data",
          "type": "bytes"
        }
      ],
      "name": "safeTransferFrom",
      "outputs": [],
      "stateMutability": "nonpayable",
      "type": "function"
    },
    {
      "inputs": [
        {
          "internalType": "address",
          "name": "operator",
          "type": "address"
        },
        {
          "internalType": "bool",
          "name": "approved",
          "type": "bool"
        }
      ],
      "name": "setApprovalForAll",
      "outputs": [],
      "stateMutability": "nonpayable",
      "type": "function"
    },
    {
      "inputs": [
        {
          "internalType": "bytes4",
          "name": "interfaceId",
          "type": "bytes4"
        }
      ],
      "name": "supportsInterface",
      "outputs": [
        {
          "internalType": "bool",
          "name": "",
          "type": "bool"
        }
      ],
      "stateMutability": "view",
      "type": "function"
    },
    {
      "inputs": [],
      "name": "symbol",
      "outputs": [
        {
          "internalType": "string",
          "name": "",
          "type": "string"
        }
      ],
      "stateMutability": "view",
      "type": "function"
    },
    {
      "inputs": [
        {
          "internalType": "uint256",
          "name": "tokenId",
          "type": "uint256"
        }
      ],
      "name": "tokenURI",
      "outputs": [
        {
          "internalType": "string",
          "name": "",
          "type": "string"
        }
      ],
      "stateMutability": "view",
      "type": "function"
    },
    {
      "inputs": [
        {
          "internalType": "address",
          "name": "from",
          "type": "address"
        },
        {
          "internalType": "address",
          "name": "to",
          "type": "address"
        },
        {
          "internalType": "uint256",
          "name": "tokenId",
          "type": "uint256"
        }
      ],
      "name": "transferFrom",
      "outputs": [],
      "stateMutability": "nonpayable",
      "type": "function"
    },
    {
      "inputs": [
        {
          "internalType": "address",
          "name": "newOwner",
          "type": "address"
        }
      ],
      "name": "transferOwnership",
      "outputs": [],
      "stateMutability": "nonpayable",
      "type": "function"
    },
    {
      "inputs": [],
      "name": "withdraw",
      "outputs": [],
      "stateMutability": "nonpayable",
      "type": "function"
    }
  ],
  "bytecode": "0x6101406040523480156200001257600080fd5b50604051620043013803806200430183398181016040528101906200003891906200080b565b6040518060400160405280600f81526020017f52616e646f6d2049504653204e465400000000000000000000000000000000008152506040518060400160405280600381526020017f52494e0000000000000000000000000000000000000000000000000000000000815250878073ffffffffffffffffffffffffffffffffffffffff1660808173ffffffffffffffffffffffffffffffffffffffff1660601b81525050508160009080519060200190620000f59291906200029e565b5080600190805190602001906200010e9291906200029e565b5050506200013162000125620001d060201b60201c565b620001d860201b60201c565b8573ffffffffffffffffffffffffffffffffffffffff1660a08173ffffffffffffffffffffffffffffffffffffffff1660601b815250508467ffffffffffffffff1660c08167ffffffffffffffff1660c01b815250508360e081815250508263ffffffff166101008163ffffffff1660e01b8152505080610120818152505081600a906003620001c39291906200032f565b505050505050506200092b565b600033905090565b6000600760009054906101000a900473ffffffffffffffffffffffffffffffffffffffff16905081600760006101000a81548173ffffffffffffffffffffffffffffffffffffffff021916908373ffffffffffffffffffffffffffffffffffffffff1602179055508173ffffffffffffffffffffffffffffffffffffffff168173ffffffffffffffffffffffffffffffffffffffff167f8be0079c531659141344cd1fd0a4f28419497f9722a3daafe3b4186f6b6457e060405160405180910390a35050565b828054620002ac90620008f5565b90600052602060002090601f016020900481019282620002d057600085556200031c565b82601f10620002eb57805160ff19168380011785556200031c565b828001600101855582156200031c579182015b828111156200031b578251825591602001919060010190620002fe565b5b5090506200032b919062000396565b5090565b82805482825590600052602060002090810192821562000383579160200282015b8281111562000382578251829080519060200190620003719291906200029e565b509160200191906001019062000350565b5b509050620003929190620003b5565b5090565b5b80821115620003b157600081600090555060010162000397565b5090565b5b80821115620003d95760008181620003cf9190620003dd565b50600101620003b6565b5090565b508054620003eb90620008f5565b6000825580601f10620003ff575062000420565b601f0160209004906000526020600020908101906200041f919062000396565b5b50565b6000604051905090565b600080fd5b600080fd5b600073ffffffffffffffffffffffffffffffffffffffff82169050919050565b6000620004648262000437565b9050919050565b620004768162000457565b81146200048257600080fd5b50565b60008151905062000496816200046b565b92915050565b600067ffffffffffffffff82169050919050565b620004bb816200049c565b8114620004c757600080fd5b50565b600081519050620004db81620004b0565b92915050565b6000819050919050565b620004f681620004e1565b81146200050257600080fd5b50565b6000815190506200051681620004eb565b92915050565b600063ffffffff82169050919050565b62000537816200051c565b81146200054357600080fd5b50565b60008151905062000557816200052c565b92915050565b600080fd5b6000601f19601f8301169050919050565b7f4e487b7100000000000000000000000000000000000000000000000000000000600052604160045260246000fd5b620005ad8262000562565b810181811067ffffffffffffffff82111715620005cf57620005ce62000573565b5b80604052505050565b6000620005e462000423565b9050620005f28282620005a2565b919050565b600067ffffffffffffffff82111562000615576200061462000573565b5b602082029050919050565b600080fd5b600080fd5b600067ffffffffffffffff82111562000648576200064762000573565b5b620006538262000562565b9050602081019050919050565b60005b838110156200068057808201518184015260208101905062000663565b8381111562000690576000848401525b50505050565b6000620006ad620006a7846200062a565b620005d8565b905082815260208101848484011115620006cc57620006cb62000625565b5b620006d984828562000660565b509392505050565b600082601f830112620006f957620006f86200055d565b5b81516200070b84826020860162000696565b91505092915050565b60006200072b6200072584620005f7565b620005d8565b9050806020840283018581111562000748576200074762000620565b5b835b818110156200079657805167ffffffffffffffff8111156200077157620007706200055d565b5b808601620007808982620006e1565b855260208501945050506020810190506200074a565b5050509392505050565b600082601f830112620007b857620007b76200055d565b5b6003620007c784828562000714565b91505092915050565b6000819050919050565b620007e581620007d0565b8114620007f157600080fd5b50565b6000815190506200080581620007da565b92915050565b60008060008060008060c087890312156200082b576200082a6200042d565b5b60006200083b89828a0162000485565b96505060206200084e89828a01620004ca565b95505060406200086189828a0162000505565b94505060606200087489828a0162000546565b935050608087015167ffffffffffffffff81111562000898576200089762000432565b5b620008a689828a01620007a0565b92505060a0620008b989828a01620007f4565b9150509295509295509295565b7f4e487b7100000000000000000000000000000000000000000000000000000000600052602260045260246000fd5b600060028204905060018216806200090e57607f821691505b60208210811415620009255762000924620008c6565b5b50919050565b60805160601c60a05160601c60c05160c01c60e0516101005160e01c6101205161396c6200099560003960008181610cc60152610f850152600061105f0152600061101b0152600061103c01526000610fdf01526000818161091d0152610971015261396c6000f3fe6080604052600436106101815760003560e01c8063715018a6116100d1578063a36f573b1161008a578063b88d4fde11610064578063b88d4fde14610577578063c87b56dd146105a0578063e985e9c5146105dd578063f2fde38b1461061a57610181565b8063a36f573b146104df578063a51cccf31461051c578063aa1524911461055957610181565b8063715018a6146103e15780637a5caab3146103f85780638da5cb5b1461042357806395d89b411461044e578063a1ece90914610479578063a22cb465146104b657610181565b806323b872dd1161013e5780635dacf5f4116101185780635dacf5f4146103115780636352211e1461033c5780636e02007d1461037957806370a08231146103a457610181565b806323b872dd146102a85780633ccfd60b146102d157806342842e0e146102e857610181565b806301ffc9a71461018657806306fdde03146101c3578063081812fc146101ee578063095ea7b31461022b5780630b21a83b146102545780631fe543e31461027f575b600080fd5b34801561019257600080fd5b506101ad60048036038101906101a8919061251a565b610643565b6040516101ba9190612562565b60405180910390f35b3480156101cf57600080fd5b506101d8610725565b6040516101e59190612616565b60405180910390f35b3480156101fa57600080fd5b506102156004803603810190610210919061266e565b6107b7565b60405161022291906126dc565b60405180910390f35b34801561023757600080fd5b50610252600480360381019061024d9190612723565b6107fd565b005b34801561026057600080fd5b50610269610915565b6040516102769190612772565b60405180910390f35b34801561028b57600080fd5b506102a660048036038101906102a191906128d5565b61091b565b005b3480156102b457600080fd5b506102cf60048036038101906102ca9190612931565b6109db565b005b3480156102dd57600080fd5b506102e6610a3b565b005b3480156102f457600080fd5b5061030f600480360381019061030a9190612931565b610aef565b005b34801561031d57600080fd5b50610326610b0f565b6040516103339190612a2f565b60405180910390f35b34801561034857600080fd5b50610363600480360381019061035e919061266e565b610b3a565b60405161037091906126dc565b60405180910390f35b34801561038557600080fd5b5061038e610bec565b60405161039b9190612772565b60405180910390f35b3480156103b057600080fd5b506103cb60048036038101906103c69190612a4a565b610bf6565b6040516103d89190612772565b60405180910390f35b3480156103ed57600080fd5b506103f6610cae565b005b34801561040457600080fd5b5061040d610cc2565b60405161041a9190612772565b60405180910390f35b34801561042f57600080fd5b50610438610cea565b60405161044591906126dc565b60405180910390f35b34801561045a57600080fd5b50610463610d14565b6040516104709190612616565b60405180910390f35b34801561048557600080fd5b506104a0600480360381019061049b919061266e565b610da6565b6040516104ad9190612616565b60405180910390f35b3480156104c257600080fd5b506104dd60048036038101906104d89190612aa3565b610e56565b005b3480156104eb57600080fd5b506105066004803603810190610501919061266e565b610e6c565b60405161051391906126dc565b60405180910390f35b34801561052857600080fd5b50610543600480360381019061053e919061266e565b610e9f565b6040516105509190612b5a565b60405180910390f35b610561610f81565b60405161056e9190612772565b60405180910390f35b34801561058357600080fd5b5061059e60048036038101906105999190612c2a565b611181565b005b3480156105ac57600080fd5b506105c760048036038101906105c2919061266e565b6111e3565b6040516105d49190612616565b60405180910390f35b3480156105e957600080fd5b5061060460048036038101906105ff9190612cad565b6112f6565b6040516106119190612562565b60405180910390f35b34801561062657600080fd5b50610641600480360381019061063c9190612a4a565b61138a565b005b60007f80ac58cd000000000000000000000000000000000000000000000000000000007bffffffffffffffffffffffffffffffffffffffffffffffffffffffff1916827bffffffffffffffffffffffffffffffffffffffffffffffffffffffff1916148061070e57507f5b5e139f000000000000000000000000000000000000000000000000000000007bffffffffffffffffffffffffffffffffffffffffffffffffffffffff1916827bffffffffffffffffffffffffffffffffffffffffffffffffffffffff1916145b8061071e575061071d8261140e565b5b9050919050565b60606000805461073490612d1c565b80601f016020809104026020016040519081016040528092919081815260200182805461076090612d1c565b80156107ad5780601f10610782576101008083540402835291602001916107ad565b820191906000526020600020905b81548152906001019060200180831161079057829003601f168201915b5050505050905090565b60006107c282611478565b6004600083815260200190815260200160002060009054906101000a900473ffffffffffffffffffffffffffffffffffffffff169050919050565b600061080882610b3a565b90508073ffffffffffffffffffffffffffffffffffffffff168373ffffffffffffffffffffffffffffffffffffffff161415610879576040517f08c379a000000000000000000000000000000000000000000000000000000000815260040161087090612dc0565b60405180910390fd5b8073ffffffffffffffffffffffffffffffffffffffff166108986114c3565b73ffffffffffffffffffffffffffffffffffffffff1614806108c757506108c6816108c16114c3565b6112f6565b5b610906576040517f08c379a00000000000000000000000000000000000000000000000000000000081526004016108fd90612e52565b60405180910390fd5b61091083836114cb565b505050565b60095481565b7f000000000000000000000000000000000000000000000000000000000000000073ffffffffffffffffffffffffffffffffffffffff163373ffffffffffffffffffffffffffffffffffffffff16146109cd57337f00000000000000000000000000000000000000000000000000000000000000006040517f1cf993f40000000000000000000000000000000000000000000000000000000081526004016109c4929190612e72565b60405180910390fd5b6109d78282611584565b5050565b6109ec6109e66114c3565b82611709565b610a2b576040517f08c379a0000000000000000000000000000000000000000000000000000000008152600401610a2290612f0d565b60405180910390fd5b610a3683838361179e565b505050565b610a43611a05565b600047905060003373ffffffffffffffffffffffffffffffffffffffff1682604051610a6e90612f5e565b60006040518083038185875af1925050503d8060008114610aab576040519150601f19603f3d011682016040523d82523d6000602084013e610ab0565b606091505b5050905080610aeb576040517fca7e25b700000000000000000000000000000000000000000000000000000000815260040160405180910390fd5b5050565b610b0a83838360405180602001604052806000815250611181565b505050565b610b176123e9565b6040518060600160405280600a8152602001601e81526020016064815250905090565b6000806002600084815260200190815260200160002060009054906101000a900473ffffffffffffffffffffffffffffffffffffffff169050600073ffffffffffffffffffffffffffffffffffffffff168173ffffffffffffffffffffffffffffffffffffffff161415610be3576040517f08c379a0000000000000000000000000000000000000000000000000000000008152600401610bda90612fbf565b60405180910390fd5b80915050919050565b6000600954905090565b60008073ffffffffffffffffffffffffffffffffffffffff168273ffffffffffffffffffffffffffffffffffffffff161415610c67576040517f08c379a0000000000000000000000000000000000000000000000000000000008152600401610c5e90613051565b60405180910390fd5b600360008373ffffffffffffffffffffffffffffffffffffffff1673ffffffffffffffffffffffffffffffffffffffff168152602001908152602001600020549050919050565b610cb6611a05565b610cc06000611a83565b565b60007f0000000000000000000000000000000000000000000000000000000000000000905090565b6000600760009054906101000a900473ffffffffffffffffffffffffffffffffffffffff16905090565b606060018054610d2390612d1c565b80601f0160208091040260200160405190810160405280929190818152602001828054610d4f90612d1c565b8015610d9c5780601f10610d7157610100808354040283529160200191610d9c565b820191906000526020600020905b815481529060010190602001808311610d7f57829003601f168201915b5050505050905090565b6060600a8281548110610dbc57610dbb613071565b5b906000526020600020018054610dd190612d1c565b80601f0160208091040260200160405190810160405280929190818152602001828054610dfd90612d1c565b8015610e4a5780601f10610e1f57610100808354040283529160200191610e4a565b820191906000526020600020905b815481529060010190602001808311610e2d57829003601f168201915b50505050509050919050565b610e68610e616114c3565b8383611b49565b5050565b60086020528060005260406000206000915054906101000a900473ffffffffffffffffffffffffffffffffffffffff1681565b600080600090506000610eb0610b0f565b905060005b6003811015610f4957828510158015610eef5750818160038110610edc57610edb613071565b5b602002015183610eec91906130cf565b85105b15610f1157806002811115610f0757610f06612ae3565b5b9350505050610f7c565b818160038110610f2457610f23613071565b5b602002015183610f3491906130cf565b92508080610f4190613125565b915050610eb5565b506040517f3c4b8a8500000000000000000000000000000000000000000000000000000000815260040160405180910390fd5b919050565b60007f0000000000000000000000000000000000000000000000000000000000000000341015610fdd576040517ff64fbfee00000000000000000000000000000000000000000000000000000000815260040160405180910390fd5b7f000000000000000000000000000000000000000000000000000000000000000073ffffffffffffffffffffffffffffffffffffffff16635d3b1d307f00000000000000000000000000000000000000000000000000000000000000007f000000000000000000000000000000000000000000000000000000000000000060037f000000000000000000000000000000000000000000000000000000000000000060016040518663ffffffff1660e01b81526004016110a09594939291906131e6565b602060405180830381600087803b1580156110ba57600080fd5b505af11580156110ce573d6000803e3d6000fd5b505050506040513d601f19601f820116820180604052508101906110f2919061324e565b9050336008600083815260200190815260200160002060006101000a81548173ffffffffffffffffffffffffffffffffffffffff021916908373ffffffffffffffffffffffffffffffffffffffff160217905550807ff873236e6cc0ecc5be1a9a35c95ee5b8d1ac4cc7bfef0cc5060391d6cc98e26b3360405161117691906126dc565b60405180910390a290565b61119261118c6114c3565b83611709565b6111d1576040517f08c379a00000000000000000000000000000000000000000000000000000000081526004016111c890612f0d565b60405180910390fd5b6111dd84848484611cb6565b50505050565b60606111ee82611478565b600060066000848152602001908152602001600020805461120e90612d1c565b80601f016020809104026020016040519081016040528092919081815260200182805461123a90612d1c565b80156112875780601f1061125c57610100808354040283529160200191611287565b820191906000526020600020905b81548152906001019060200180831161126a57829003601f168201915b505050505090506000611298611d12565b90506000815114156112ae5781925050506112f1565b6000825111156112e35780826040516020016112cb9291906132b7565b604051602081830303815290604052925050506112f1565b6112ec84611d29565b925050505b919050565b6000600560008473ffffffffffffffffffffffffffffffffffffffff1673ffffffffffffffffffffffffffffffffffffffff16815260200190815260200160002060008373ffffffffffffffffffffffffffffffffffffffff1673ffffffffffffffffffffffffffffffffffffffff16815260200190815260200160002060009054906101000a900460ff16905092915050565b611392611a05565b600073ffffffffffffffffffffffffffffffffffffffff168173ffffffffffffffffffffffffffffffffffffffff161415611402576040517f08c379a00000000000000000000000000000000000000000000000000000000081526004016113f99061334d565b60405180910390fd5b61140b81611a83565b50565b60007f01ffc9a7000000000000000000000000000000000000000000000000000000007bffffffffffffffffffffffffffffffffffffffffffffffffffffffff1916827bffffffffffffffffffffffffffffffffffffffffffffffffffffffff1916149050919050565b61148181611d91565b6114c0576040517f08c379a00000000000000000000000000000000000000000000000000000000081526004016114b790612fbf565b60405180910390fd5b50565b600033905090565b816004600083815260200190815260200160002060006101000a81548173ffffffffffffffffffffffffffffffffffffffff021916908373ffffffffffffffffffffffffffffffffffffffff160217905550808273ffffffffffffffffffffffffffffffffffffffff1661153e83610b3a565b73ffffffffffffffffffffffffffffffffffffffff167f8c5be1e5ebec7d5bd14f71427d1e84f3dd0314c0f7b2291e5b200ac8c7c3b92560405160405180910390a45050565b60006008600084815260200190815260200160002060009054906101000a900473ffffffffffffffffffffffffffffffffffffffff1690506000600954905060006064846000815181106115db576115da613071565b5b60200260200101516115ed919061339c565b905060006115fa82610e9f565b90506116068484611dfd565b6116c883600a83600281111561161f5761161e612ae3565b5b815481106116305761162f613071565b5b90600052602060002001805461164590612d1c565b80601f016020809104026020016040519081016040528092919081815260200182805461167190612d1c565b80156116be5780601f10611693576101008083540402835291602001916116be565b820191906000526020600020905b8154815290600101906020018083116116a157829003601f168201915b5050505050611e1b565b7f8a269f26b688e110e9cbd887d163dab35cae678fa353a0292de532c0cac1ecdc81856040516116f99291906133cd565b60405180910390a1505050505050565b60008061171583610b3a565b90508073ffffffffffffffffffffffffffffffffffffffff168473ffffffffffffffffffffffffffffffffffffffff161480611757575061175681856112f6565b5b8061179557508373ffffffffffffffffffffffffffffffffffffffff1661177d846107b7565b73ffffffffffffffffffffffffffffffffffffffff16145b91505092915050565b8273ffffffffffffffffffffffffffffffffffffffff166117be82610b3a565b73ffffffffffffffffffffffffffffffffffffffff1614611814576040517f08c379a000000000000000000000000000000000000000000000000000000000815260040161180b90613468565b60405180910390fd5b600073ffffffffffffffffffffffffffffffffffffffff168273ffffffffffffffffffffffffffffffffffffffff161415611884576040517f08c379a000000000000000000000000000000000000000000000000000000000815260040161187b906134fa565b60405180910390fd5b61188f838383611e8f565b61189a6000826114cb565b6001600360008573ffffffffffffffffffffffffffffffffffffffff1673ffffffffffffffffffffffffffffffffffffffff16815260200190815260200160002060008282546118ea919061351a565b925050819055506001600360008473ffffffffffffffffffffffffffffffffffffffff1673ffffffffffffffffffffffffffffffffffffffff168152602001908152602001600020600082825461194191906130cf565b92505081905550816002600083815260200190815260200160002060006101000a81548173ffffffffffffffffffffffffffffffffffffffff021916908373ffffffffffffffffffffffffffffffffffffffff160217905550808273ffffffffffffffffffffffffffffffffffffffff168473ffffffffffffffffffffffffffffffffffffffff167fddf252ad1be2c89b69c2b068fc378daa952ba7f163c4a11628f55a4df523b3ef60405160405180910390a4611a00838383611e94565b505050565b611a0d6114c3565b73ffffffffffffffffffffffffffffffffffffffff16611a2b610cea565b73ffffffffffffffffffffffffffffffffffffffff1614611a81576040517f08c379a0000000000000000000000000000000000000000000000000000000008152600401611a789061359a565b60405180910390fd5b565b6000600760009054906101000a900473ffffffffffffffffffffffffffffffffffffffff16905081600760006101000a81548173ffffffffffffffffffffffffffffffffffffffff021916908373ffffffffffffffffffffffffffffffffffffffff1602179055508173ffffffffffffffffffffffffffffffffffffffff168173ffffffffffffffffffffffffffffffffffffffff167f8be0079c531659141344cd1fd0a4f28419497f9722a3daafe3b4186f6b6457e060405160405180910390a35050565b8173ffffffffffffffffffffffffffffffffffffffff168373ffffffffffffffffffffffffffffffffffffffff161415611bb8576040517f08c379a0000000000000000000000000000000000000000000000000000000008152600401611baf90613606565b60405180910390fd5b80600560008573ffffffffffffffffffffffffffffffffffffffff1673ffffffffffffffffffffffffffffffffffffffff16815260200190815260200160002060008473ffffffffffffffffffffffffffffffffffffffff1673ffffffffffffffffffffffffffffffffffffffff16815260200190815260200160002060006101000a81548160ff0219169083151502179055508173ffffffffffffffffffffffffffffffffffffffff168373ffffffffffffffffffffffffffffffffffffffff167f17307eab39ab6107e8899845ad3d59bd9653f200f220920489ca2b5937696c3183604051611ca99190612562565b60405180910390a3505050565b611cc184848461179e565b611ccd84848484611e99565b611d0c576040517f08c379a0000000000000000000000000000000000000000000000000000000008152600401611d0390613698565b60405180910390fd5b50505050565b606060405180602001604052806000815250905090565b6060611d3482611478565b6000611d3e611d12565b90506000815111611d5e5760405180602001604052806000815250611d89565b80611d6884612030565b604051602001611d799291906132b7565b6040516020818303038152906040525b915050919050565b60008073ffffffffffffffffffffffffffffffffffffffff166002600084815260200190815260200160002060009054906101000a900473ffffffffffffffffffffffffffffffffffffffff1673ffffffffffffffffffffffffffffffffffffffff1614159050919050565b611e17828260405180602001604052806000815250612191565b5050565b611e2482611d91565b611e63576040517f08c379a0000000000000000000000000000000000000000000000000000000008152600401611e5a9061372a565b60405180910390fd5b80600660008481526020019081526020016000209080519060200190611e8a92919061240b565b505050565b505050565b505050565b6000611eba8473ffffffffffffffffffffffffffffffffffffffff166121ec565b15612023578373ffffffffffffffffffffffffffffffffffffffff1663150b7a02611ee36114c3565b8786866040518563ffffffff1660e01b8152600401611f05949392919061379f565b602060405180830381600087803b158015611f1f57600080fd5b505af1925050508015611f5057506040513d601f19601f82011682018060405250810190611f4d9190613800565b60015b611fd3573d8060008114611f80576040519150601f19603f3d011682016040523d82523d6000602084013e611f85565b606091505b50600081511415611fcb576040517f08c379a0000000000000000000000000000000000000000000000000000000008152600401611fc290613698565b60405180910390fd5b805181602001fd5b63150b7a0260e01b7bffffffffffffffffffffffffffffffffffffffffffffffffffffffff1916817bffffffffffffffffffffffffffffffffffffffffffffffffffffffff191614915050612028565b600190505b949350505050565b60606000821415612078576040518060400160405280600181526020017f3000000000000000000000000000000000000000000000000000000000000000815250905061218c565b600082905060005b600082146120aa57808061209390613125565b915050600a826120a3919061382d565b9150612080565b60008167ffffffffffffffff8111156120c6576120c5612792565b5b6040519080825280601f01601f1916602001820160405280156120f85781602001600182028036833780820191505090505b5090505b6000851461218557600182612111919061351a565b9150600a85612120919061339c565b603061212c91906130cf565b60f81b81838151811061214257612141613071565b5b60200101907effffffffffffffffffffffffffffffffffffffffffffffffffffffffffffff1916908160001a905350600a8561217e919061382d565b94506120fc565b8093505050505b919050565b61219b838361220f565b6121a86000848484611e99565b6121e7576040517f08c379a00000000000000000000000000000000000000000000000000000000081526004016121de90613698565b60405180910390fd5b505050565b6000808273ffffffffffffffffffffffffffffffffffffffff163b119050919050565b600073ffffffffffffffffffffffffffffffffffffffff168273ffffffffffffffffffffffffffffffffffffffff16141561227f576040517f08c379a0000000000000000000000000000000000000000000000000000000008152600401612276906138aa565b60405180910390fd5b61228881611d91565b156122c8576040517f08c379a00000000000000000000000000000000000000000000000000000000081526004016122bf90613916565b60405180910390fd5b6122d460008383611e8f565b6001600360008473ffffffffffffffffffffffffffffffffffffffff1673ffffffffffffffffffffffffffffffffffffffff168152602001908152602001600020600082825461232491906130cf565b92505081905550816002600083815260200190815260200160002060006101000a81548173ffffffffffffffffffffffffffffffffffffffff021916908373ffffffffffffffffffffffffffffffffffffffff160217905550808273ffffffffffffffffffffffffffffffffffffffff16600073ffffffffffffffffffffffffffffffffffffffff167fddf252ad1be2c89b69c2b068fc378daa952ba7f163c4a11628f55a4df523b3ef60405160405180910390a46123e560008383611e94565b5050565b6040518060600160405280600390602082028036833780820191505090505090565b82805461241790612d1c565b90600052602060002090601f0160209004810192826124395760008555612480565b82601f1061245257805160ff1916838001178555612480565b82800160010185558215612480579182015b8281111561247f578251825591602001919060010190612464565b5b50905061248d9190612491565b5090565b5b808211156124aa576000816000905550600101612492565b5090565b6000604051905090565b600080fd5b600080fd5b60007fffffffff0000000000000000000000000000000000000000000000000000000082169050919050565b6124f7816124c2565b811461250257600080fd5b50565b600081359050612514816124ee565b92915050565b6000602082840312156125305761252f6124b8565b5b600061253e84828501612505565b91505092915050565b60008115159050919050565b61255c81612547565b82525050565b60006020820190506125776000830184612553565b92915050565b600081519050919050565b600082825260208201905092915050565b60005b838110156125b757808201518184015260208101905061259c565b838111156125c6576000848401525b50505050565b6000601f19601f8301169050919050565b60006125e88261257d565b6125f28185612588565b9350612602818560208601612599565b61260b816125cc565b840191505092915050565b6000602082019050818103600083015261263081846125dd565b905092915050565b6000819050919050565b61264b81612638565b811461265657600080fd5b50565b60008135905061266881612642565b92915050565b600060208284031215612684576126836124b8565b5b600061269284828501612659565b91505092915050565b600073ffffffffffffffffffffffffffffffffffffffff82169050919050565b60006126c68261269b565b9050919050565b6126d6816126bb565b82525050565b60006020820190506126f160008301846126cd565b92915050565b612700816126bb565b811461270b57600080fd5b50565b60008135905061271d816126f7565b92915050565b6000806040838503121561273a576127396124b8565b5b60006127488582860161270e565b925050602061275985828601612659565b9150509250929050565b61276c81612638565b82525050565b60006020820190506127876000830184612763565b92915050565b600080fd5b7f4e487b7100000000000000000000000000000000000000000000000000000000600052604160045260246000fd5b6127ca826125cc565b810181811067ffffffffffffffff821117156127e9576127e8612792565b5b80604052505050565b60006127fc6124ae565b905061280882826127c1565b919050565b600067ffffffffffffffff82111561282857612827612792565b5b602082029050602081019050919050565b600080fd5b600061285161284c8461280d565b6127f2565b9050808382526020820190506020840283018581111561287457612873612839565b5b835b8181101561289d57806128898882612659565b845260208401935050602081019050612876565b5050509392505050565b600082601f8301126128bc576128bb61278d565b5b81356128cc84826020860161283e565b91505092915050565b600080604083850312156128ec576128eb6124b8565b5b60006128fa85828601612659565b925050602083013567ffffffffffffffff81111561291b5761291a6124bd565b5b612927858286016128a7565b9150509250929050565b60008060006060848603121561294a576129496124b8565b5b60006129588682870161270e565b93505060206129698682870161270e565b925050604061297a86828701612659565b9150509250925092565b600060039050919050565b600081905092915050565b6000819050919050565b6129ad81612638565b82525050565b60006129bf83836129a4565b60208301905092915050565b6000602082019050919050565b6129e181612984565b6129eb818461298f565b92506129f68261299a565b8060005b83811015612a27578151612a0e87826129b3565b9650612a19836129cb565b9250506001810190506129fa565b505050505050565b6000606082019050612a4460008301846129d8565b92915050565b600060208284031215612a6057612a5f6124b8565b5b6000612a6e8482850161270e565b91505092915050565b612a8081612547565b8114612a8b57600080fd5b50565b600081359050612a9d81612a77565b92915050565b60008060408385031215612aba57612ab96124b8565b5b6000612ac88582860161270e565b9250506020612ad985828601612a8e565b9150509250929050565b7f4e487b7100000000000000000000000000000000000000000000000000000000600052602160045260246000fd5b60038110612b2357612b22612ae3565b5b50565b6000819050612b3482612b12565b919050565b6000612b4482612b26565b9050919050565b612b5481612b39565b82525050565b6000602082019050612b6f6000830184612b4b565b92915050565b600080fd5b600067ffffffffffffffff821115612b9557612b94612792565b5b612b9e826125cc565b9050602081019050919050565b82818337600083830152505050565b6000612bcd612bc884612b7a565b6127f2565b905082815260208101848484011115612be957612be8612b75565b5b612bf4848285612bab565b509392505050565b600082601f830112612c1157612c1061278d565b5b8135612c21848260208601612bba565b91505092915050565b60008060008060808587031215612c4457612c436124b8565b5b6000612c528782880161270e565b9450506020612c638782880161270e565b9350506040612c7487828801612659565b925050606085013567ffffffffffffffff811115612c9557612c946124bd565b5b612ca187828801612bfc565b91505092959194509250565b60008060408385031215612cc457612cc36124b8565b5b6000612cd28582860161270e565b9250506020612ce38582860161270e565b9150509250929050565b7f4e487b7100000000000000000000000000000000000000000000000000000000600052602260045260246000fd5b60006002820490506001821680612d3457607f821691505b60208210811415612d4857612d47612ced565b5b50919050565b7f4552433732313a20617070726f76616c20746f2063757272656e74206f776e6560008201527f7200000000000000000000000000000000000000000000000000000000000000602082015250565b6000612daa602183612588565b9150612db582612d4e565b604082019050919050565b60006020820190508181036000830152612dd981612d9d565b9050919050565b7f4552433732313a20617070726f76652063616c6c6572206973206e6f7420746f60008201527f6b656e206f776e6572206e6f7220617070726f76656420666f7220616c6c0000602082015250565b6000612e3c603e83612588565b9150612e4782612de0565b604082019050919050565b60006020820190508181036000830152612e6b81612e2f565b9050919050565b6000604082019050612e8760008301856126cd565b612e9460208301846126cd565b9392505050565b7f4552433732313a2063616c6c6572206973206e6f7420746f6b656e206f776e6560008201527f72206e6f7220617070726f766564000000000000000000000000000000000000602082015250565b6000612ef7602e83612588565b9150612f0282612e9b565b604082019050919050565b60006020820190508181036000830152612f2681612eea565b9050919050565b600081905092915050565b50565b6000612f48600083612f2d565b9150612f5382612f38565b600082019050919050565b6000612f6982612f3b565b9150819050919050565b7f4552433732313a20696e76616c696420746f6b656e2049440000000000000000600082015250565b6000612fa9601883612588565b9150612fb482612f73565b602082019050919050565b60006020820190508181036000830152612fd881612f9c565b9050919050565b7f4552433732313a2061646472657373207a65726f206973206e6f74206120766160008201527f6c6964206f776e65720000000000000000000000000000000000000000000000602082015250565b600061303b602983612588565b915061304682612fdf565b604082019050919050565b6000602082019050818103600083015261306a8161302e565b9050919050565b7f4e487b7100000000000000000000000000000000000000000000000000000000600052603260045260246000fd5b7f4e487b7100000000000000000000000000000000000000000000000000000000600052601160045260246000fd5b60006130da82612638565b91506130e583612638565b9250827fffffffffffffffffffffffffffffffffffffffffffffffffffffffffffffffff0382111561311a576131196130a0565b5b828201905092915050565b600061313082612638565b91507fffffffffffffffffffffffffffffffffffffffffffffffffffffffffffffffff821415613163576131626130a0565b5b600182019050919050565b6000819050919050565b6131818161316e565b82525050565b600067ffffffffffffffff82169050919050565b6131a481613187565b82525050565b600061ffff82169050919050565b6131c1816131aa565b82525050565b600063ffffffff82169050919050565b6131e0816131c7565b82525050565b600060a0820190506131fb6000830188613178565b613208602083018761319b565b61321560408301866131b8565b61322260608301856131d7565b61322f60808301846131d7565b9695505050505050565b60008151905061324881612642565b92915050565b600060208284031215613264576132636124b8565b5b600061327284828501613239565b91505092915050565b600081905092915050565b60006132918261257d565b61329b818561327b565b93506132ab818560208601612599565b80840191505092915050565b60006132c38285613286565b91506132cf8284613286565b91508190509392505050565b7f4f776e61626c653a206e6577206f776e657220697320746865207a65726f206160008201527f6464726573730000000000000000000000000000000000000000000000000000602082015250565b6000613337602683612588565b9150613342826132db565b604082019050919050565b600060208201905081810360008301526133668161332a565b9050919050565b7f4e487b7100000000000000000000000000000000000000000000000000000000600052601260045260246000fd5b60006133a782612638565b91506133b283612638565b9250826133c2576133c161336d565b5b828206905092915050565b60006040820190506133e26000830185612b4b565b6133ef60208301846126cd565b9392505050565b7f4552433732313a207472616e736665722066726f6d20696e636f72726563742060008201527f6f776e6572000000000000000000000000000000000000000000000000000000602082015250565b6000613452602583612588565b915061345d826133f6565b604082019050919050565b6000602082019050818103600083015261348181613445565b9050919050565b7f4552433732313a207472616e7366657220746f20746865207a65726f2061646460008201527f7265737300000000000000000000000000000000000000000000000000000000602082015250565b60006134e4602483612588565b91506134ef82613488565b604082019050919050565b60006020820190508181036000830152613513816134d7565b9050919050565b600061352582612638565b915061353083612638565b925082821015613543576135426130a0565b5b828203905092915050565b7f4f776e61626c653a2063616c6c6572206973206e6f7420746865206f776e6572600082015250565b6000613584602083612588565b915061358f8261354e565b602082019050919050565b600060208201905081810360008301526135b381613577565b9050919050565b7f4552433732313a20617070726f766520746f2063616c6c657200000000000000600082015250565b60006135f0601983612588565b91506135fb826135ba565b602082019050919050565b6000602082019050818103600083015261361f816135e3565b9050919050565b7f4552433732313a207472616e7366657220746f206e6f6e20455243373231526560008201527f63656976657220696d706c656d656e7465720000000000000000000000000000602082015250565b6000613682603283612588565b915061368d82613626565b604082019050919050565b600060208201905081810360008301526136b181613675565b9050919050565b7f45524337323155524953746f726167653a2055524920736574206f66206e6f6e60008201527f6578697374656e7420746f6b656e000000000000000000000000000000000000602082015250565b6000613714602e83612588565b915061371f826136b8565b604082019050919050565b6000602082019050818103600083015261374381613707565b9050919050565b600081519050919050565b600082825260208201905092915050565b60006137718261374a565b61377b8185613755565b935061378b818560208601612599565b613794816125cc565b840191505092915050565b60006080820190506137b460008301876126cd565b6137c160208301866126cd565b6137ce6040830185612763565b81810360608301526137e08184613766565b905095945050505050565b6000815190506137fa816124ee565b92915050565b600060208284031215613816576138156124b8565b5b6000613824848285016137eb565b91505092915050565b600061383882612638565b915061384383612638565b9250826138535761385261336d565b5b828204905092915050565b7f4552433732313a206d696e7420746f20746865207a65726f2061646472657373600082015250565b6000613894602083612588565b915061389f8261385e565b602082019050919050565b600060208201905081810360008301526138c381613887565b9050919050565b7f4552433732313a20746f6b656e20616c7265616479206d696e74656400000000600082015250565b6000613900601c83612588565b915061390b826138ca565b602082019050919050565b6000602082019050818103600083015261392f816138f3565b905091905056fea2646970667358221220464fcaeb86ba1bf2a0ed661d6fffd10788c890d527ff9cfe4381d12322dc44ec64736f6c63430008080033",
  "linkReferences": {},
  "deployedLinkReferences": {}
}